:100000000C9434000C943E000C943E000C943E0082
:100010000C943E000C943E000C943E000C943E0068
:100020000C943E000C943E000C943E000C943E0058
:100030000C943E000C943E000C943E000C943E0048
:100040000C943E000C943E000C943E000C943E0038
:100050000C943E000C943E000C943E000C943E0028
:100060000C943E000C943E0011241FBECFEFD8E04C
:10007000DEBFCDBF0E94BD010C944A030C9400006A
:10008000CF93DF93CDB7DEB78AE290E02FEFFC018C
:1000900020838BE290E0FC0110820000DF91CF9181
:1000A00008950F931F93CF93DF93CDB7DEB72A97B1
:1000B0000FB6F894DEBF0FBECDBF9A8389837C83D1
:1000C0006B835E834D8338872F831A870987298145
:1000D0003A818B819C81281B390B49855A858F81F8
:1000E0009885BA01681B790BCB01289FA001299F35
:1000F000500D389F500D11242D813E818B819C81A4
:10010000281B390BCA01B9010E940702CB019C01CF
:100110008F819885820F931F2A960FB6F894DEBFC1
:100120000FBECDBFDF91CF911F910F910895CF9357
:10013000DF93CDB7DEB78AE790E02AE730E0F90138
:1001400020812768FC0120838CE790E020E4FC01FB
:1001500020830000DF91CF910895CF93DF93CDB737
:10016000DEB76C970FB6F894DEBF0FBECDBF80E050
:1001700090E0A0E2B1E48D839E83AF83B88720E056
:1001800030E04AE755E46D817E818F8198850E9439
:10019000B502DC01CB0189879A87AB87BC8720E059
:1001A00030E040E85FE369857A858B859C850E9415
:1001B0002F0288232CF481E090E09E878D873FC03A
:1001C00020E03FEF4FE757E469857A858B859C8572
:1001D0000E94B00218164CF520E030E040E251E4F5
:1001E0006D817E818F8198850E94B502DC01CB01F3
:1001F000BC01CD010E943402DC01CB019E878D87BA
:100200000FC080E991E0988B8F878F85988901973F
:10021000F1F7988B8F878D859E8501979E878D87B7
:100220008D859E85892B69F714C069857A858B85B4
:100230009C850E943402DC01CB019E878D878D85D1
:100240009E859A8B898B89899A890197F1F79A8B78
:10025000898B8AE790E02AE730E0F9012081206469
:10026000FC01208300008AE790E0FC018081882F58
:1002700090E080749927892BB1F780E090E0A0E2AC
:10028000B1E489839A83AB83BC8320E030E04AE702
:1002900055E469817A818B819C810E94B502DC01E1
:1002A000CB018B8B9C8BAD8BBE8B20E030E040E88C
:1002B0005FE36B897C898D899E890E942F02882348
:1002C0002CF481E090E0988F8F8B3FC020E03FEFCF
:1002D0004FE757E46B897C898D899E890E94B00223
:1002E00018164CF520E030E040E251E469817A8153
:1002F0008B819C810E94B502DC01CB01BC01CD0148
:100300000E943402DC01CB01988F8F8B0FC080E9F3
:1003100091E09A8F898F898D9A8D0197F1F79A8F45
:10032000898F8F89988D0197988F8F8B8F89988D62
:10033000892B69F714C06B897C898D899E890E94FD
:100340003402DC01CB01988F8F8B8F89988D9C8F25
:100350008B8F8B8D9C8D0197F1F79C8F8B8F88E70E
:1003600090E0FC01808191816C960FB6F894DEBF1D
:100370000FBECDBFDF91CF9108950F931F93CF9301
:10038000DF93CDB7DEB70E9440000E9497000E9425
:10039000AD0003E010E020E030E04FEF53E060E01C
:1003A00070E00E94510081309105B1F082309105DA
:1003B0001CF4892B39F02AC082309105B9F00397DB
:1003C000F9F024C08BE290E02BE230E0F9012081CB
:1003D0002F77FC0120831AC08BE290E02BE230E003
:1003E000F90120812F77FC01208310C08BE290E07F
:1003F0002BE230E0F90120812F77FC01208306C039
:100400008BE290E020E8FC0120830000C0CF97FB46
:10041000072E16F4009407D077FD09D00E941B0226
:1004200007FC05D03EF4909581959F4F08957095F7
:1004300061957F4F0895AA1BBB1B51E107C0AA1FFE
:10044000BB1FA617B70710F0A61BB70B881F991F75
:100450005A95A9F780959095BC01CD0108950E9409
:10046000630208F481E008950E948F0288F09F578C
:1004700098F0B92F9927B751B0F0E1F0660F771FC8
:10048000881F991F1AF0BA95C9F714C0B13091F0BE
:100490000E94A902B1E008950C94A902672F782F59
:1004A0008827B85F39F0B93FCCF386957795679583
:1004B000B395D9F73EF490958095709561957F4FEF
:1004C0008F4F9F4F0895990F0008550FAA0BE0E832
:1004D000FEEF16161706E807F907C0F01216130606
:1004E000E407F50798F0621B730B840B950B39F446
:1004F0000A2661F0232B242B252B21F408950A26AC
:1005000009F4A140A6958FEF811D811D089557FD27
:100510009058440F551F59F05F3F71F04795880F71
:1005200097FB991F61F09F3F79F087950895121608
:1005300013061406551FF2CF4695F1DF08C01616B4
:1005400017061806991FF1CF869571056105089465
:100550000895E894BB2766277727CB0197F908957C
:100560000E94630208F48FEF08950E94C8020C9461
:1005700039030E942B0338F00E94320320F09523A8
:1005800011F00C9422030C94280311240C94AA0259
:100590000E94870270F3959FC1F3950F50E0551F9D
:1005A000629FF001729FBB27F00DB11D639FAA27C8
:1005B000F00DB11DAA1F649F6627B00DA11D661F17
:1005C000829F2227B00DA11D621F739FB00DA11D38
:1005D000621F839FA00D611D221F749F3327A00DF2
:1005E000611D231F849F600D211D822F762F6A2F8E
:1005F00011249F5750409AF0F1F088234AF0EE0FF3
:10060000FF1FBB1F661F771F881F91505040A9F71F
:100610009E3F510580F00C9422030C94AA025F3F88
:10062000E4F3983ED4F3869577956795B795F7955B
:10063000E7959F5FC1F7FE2B880F911D96958795D3
:1006400097F9089597F99F6780E870E060E0089552
:100650009FEF80EC089500240A94161617061806DA
:100660000906089500240A941216130614060506B6
:100670000895092E0394000C11F4882352F0BB0F47
:1006800040F4BF2B11F460FF04C06F5F7F4F8F4FAA
:080690009F4F0895F894FFCF7D
:00000001FF
